S016000043616C63756C61746F725F4E54492E73726563BA
S11300000C942A000C9447000C9447000C9447006D
S11300100C9447000C9447000C9447000C94470040
S11300200C9447000C9447000C9447000C94470030
S11300300C9447000C9447000C9447000C94470020
S11300400C9447000C9447000C9447000C94470010
S11300500C94470011241FBECFE5D8E0DEBFCDBF0E
S113006011E0A0E6B0E0EAE9FDE002C005900D92DF
S1130070A43AB107D9F721E0A4EAB1E001C01D9286
S1130080A73EB207E1F70E942E030C94CB060C9412
S11300900000CF9343E062E082E00E94110443E059
S11300A063E082E00E94110443E064E082E00E9485
S11300B0110443E065E082E00E94110467E083E0FC
S11300C00E94450566E083E00E94450565E083E003
S11300D00E94450563E083E00E944505C0E00AC034
S11300E0EC2FF0E0EA5AFE4F608141E082E00E948A
S11300F0A704CF5FC430A0F3CF910895BF92CF92ED
S1130100DF92EF92FF920F931F93CF93DF93D12C43
S1130110B12C33C0ED2CF12CF701EA5AFE4FC0800C
S113012040E06C2D82E00E94A704D0E01EC00D2F99
S113013010E0F801EE5AFE4FC0816C2F83E00E945C
S11301401705811111C0C701880F991F880F991FC6
S1130150865A9E4FFC01E00FF11FB0806C2F83E0A4
S11301600E9417058823D1F3DF5FD43000F341E008
S11301706C2D82E00E94A704D39483E08D1550F681
S11301808B2DDF91CF911F910F91FF90EF90DF9016
S1130190CF90BF900895CF93C82F40E063E080E0F4
S11301A00E94A7044C2F441F4427441F64E081E0AD
S11301B00E94A704C6FB442740F962E081E00E9444
S11301C0A704C5FB442740F961E081E00E94A7042D
S11301D0C4FB442740F960E081E00E94A70441E0A9
S11301E062E080E00E94A7048FE99FE00197F1F7A5
S11301F000C0000040E062E080E00E94A7048FE9B4
S11302009FE00197F1F700C00000C3FB442740F9C9
S113021064E081E00E94A704C2FB442740F962E045
S113022081E00E94A704C1FB442740F961E081E01A
S11302300E94A7044C2F417060E081E00E94A70453
S113024041E062E080E00E94A7048FE99FE001970B
S1130250F1F700C0000040E062E080E00E94A704E3
S11302608FE99FE00197F1F700C00000CF91089556
S1130270CF93C82F41E063E080E00E94A7044C2F95
S1130280441F4427441F64E081E00E94A704C6FB86
S1130290442740F962E081E00E94A704C5FB44279B
S11302A040F961E081E00E94A704C4FB442740F9BF
S11302B060E081E00E94A70441E062E080E00E94E7
S11302C0A7048FE99FE00197F1F700C0000040E028
S11302D062E080E00E94A7048FE99FE00197F1F7B4
S11302E000C00000C3FB442740F964E081E00E94A1
S11302F0A704C2FB442740F962E081E00E94A704FE
S1130300C1FB442740F961E081E00E94A7044C2F1F
S1130310417060E081E00E94A70441E062E080E077
S11303200E94A7048FE99FE00197F1F700C0000045
S113033040E062E080E00E94A7048FE99FE001971B
S1130340F1F700C00000CF91089543E062E080E03F
S11303500E94110443E063E080E00E94110443E042
S113036060E081E00E94110443E061E081E00E94CA
S1130370110443E062E081E00E94110443E064E080
S113038081E00E9411042FEF86E791E02150804024
S11303909040E1F700C0000082E00E94CB0088E2B8
S11303A00E94CB008CE00E94CB0081E00E94CB0035
S11303B086E00E94CB0008950E94380108950F93AF
S11303C01F93CF938C01C0E003C00E94DC01CF5F78
S11303D0F801EC0FF11D80818111F7CFCF911F91AE
S11303E00F910895823071F018F4813031F008953E
S11303F0833069F0843081F008958FE7860F0E947E
S1130400CB0008958FEB860F0E94CB00089583E9FB
S1130410860F0E94CB00089583ED860F0E94CB00C7
S1130420089581E00E94CB0008952F923F924F924D
S11304305F926F927F928F929F92AF92BF92CF9270
S1130440DF92EF92FF920F931F93CF93DF93CDB779
S1130450DEB72B970FB6F894DEBF0FBECDBF29874A
S11304603A874B87852E762E672E382E292EFE014D
S1130470319688E0DF011D928A95E9F729853A854E
S11304804B85832DA0E00E94AB0619F480E30E9403
S1130490DC0129853A854B85582D672D762D832DD2
S11304A0922DA0E00E94AB06ACF48DE20E94DC0128
S11304B029853A854B85582D672D762D832D922DD0
S11304C00E94640629873A874B87852E762E672EED
S11304D0382E292E912C32C0492C512C0F2EFAE0A3
S11304E0AF2EF02DB12CC12CD12CE12CF12C00E03D
S11304F010E029853A854B85582D672D762D832D5F
S1130500922D0E94D405E1E0F0E0EC0FFD1FE40D14
S1130510F51D205D208329853A854B85582D672D4F
S1130520762D832D922D0E94D60529873A874B87F5
S1130530852E762E672E382E292E939429853A857A
S11305404B85582D672D762D832D922DA0E00E948A
S1130550AB0611F69A940CC0E1E0F0E0EC0FFD1F3D
S1130560E90DF11D97FCFA9580810E94DC019A94B3
S1130570992094F72B960FB6F894DEBF0FBECDBF2B
S1130580DF91CF911F910F91FF90EF90DF90CF906B
S1130590BF90AF909F908F907F906F905F904F909F
S11305A03F902F9008950E94A5010E944900E4EA1B
S11305B0F1E082E082A787A781E083A785A760E0B6
S11305C070E089ED90E00E948D050895DC0120E043
S11305D030E060E012C0A901440F551F220F331F01
S11305E0220F331F220F331F420F531F292F30E0D6
S11305F020533109240F351F6F5FFD01E60FF11DF4
S113060090819111E8CFC90108954B3249F018F453
S11306104A3271F01CC04D3239F04F3289F017C0A4
S11306209C01260F371F18C09C01261B370B14C0D2
S1130630869F9001879F300D969F300D11240CC02A
S11306406115710539F00E94C0059B0105C020E0C9
S113065030E002C020E030E8C90108950E94D302CE
S11306600E947E008093E60160E083E00E9417050B
S1130670811109C088E20E94DC0160E083E00E94ED
S113068017058823D1F361E083E00E9417058111E7
S113069009C089E20E94DC0161E083E00E94170541
S11306A08823D1F38091E60190ED980F9A3078F485
S11306B00E94DC018091E001E82FF0E0EF51FE4F51
S11306C09091E60190838F5F8093E001C9CF8B32D4
S11306D031F08D3221F08A3211F08F32F9F40E9418
S11306E0DC01E091E001F0E0EF51FE4F108281EE79
S11306F091E00E94E6029093DF018093DE01BC0149
S113070080E690E00E948D056091E60170E089ED3D
S113071090E00E948D051092E001A2CF8D3309F084
S113072074C0E091E001F0E0EF51FE4F108281EEE1
S113073091E00E94E6029093DF018093DE01109223
S1130740E001BC0180E690E00E948D052BC06AEDBB
S113075071E080E690E00E949E056CED71E080E619
S113076090E00E949E0568ED71E089ED90E00E94A2
S11307709E056091DA017091DB014091D80180916E
S1130780DC019091DD010E9405039093D7018093D1
S1130790D601811520E8920759F0BC0180E690E06B
S11307A00E948D0589ED90E00E94B205892B79F6AF
S11307B08091D6019091D7018115904859F40E94F7
S11307C0110265E082E00E94F20188E991E00E9452
S11307D0DF0146CF80E690E00E94B2059093D701F6
S11307E08093D60161E084E00E94F2013091D70148
S11307F02091D601932F990F990B492F592F692FC7
S1130800792F892F0E9415022BCF833609F028CF28
S11308100E9411021092D7011092D6011092E001A9
S11308201FCF433009F048C08130B1F028F0823046
S113083019F1833089F108952AB381E090E002C070
S1130840880F991F6A95E2F7922F982B9ABB9BB356
S1130850809589238BBB089527B381E090E002C083
S1130860880F991F6A95E2F7922F982B97BB98B33C
S11308708095892388BB089524B381E090E002C069
S1130880880F991F6A95E2F7922F982B94BB95B322
S11308908095892385BB089521B381E090E002C04F
S11308A0880F991F6A95E2F7922F982B91BB92B308
S11308B08095892382BB0895423009F047C0813076
S11308C0B1F028F0823019F1833089F108952AB308
S11308D081E090E002C0880F991F6A95E2F7809545
S11308E0922F98239ABB9BB389238BBB089527B37C
S11308F081E090E002C0880F991F6A95E2F7809525
S1130900922F982397BB98B3892388BB089524B367
S113091081E090E002C0880F991F6A95E2F7809504
S1130920922F982394BB95B3892385BB089521B353
S113093081E090E002C0880F991F6A95E2F78095E4
S1130940922F982391BB92B3892382BB089541309F
S1130950A1F5813089F028F08230C9F0833011F19B
S113096008952BB381E090E002C0880F991F6A9527
S1130970E2F7822B8BBB089528B381E090E002C09C
S1130980880F991F6A95E2F7822B88BB089525B3D7
S113099081E090E002C0880F991F6A95E2F7822BEC
S11309A085BB089522B381E090E002C0880F991FAF
S11309B06A95E2F7822B82BB0895411137C08130DA
S11309C091F028F08230D9F0833029F108952BB3C7
S11309D081E090E002C0880F991F6A95E2F7809544
S11309E082238BBB089528B381E090E002C0880F76
S11309F0991F6A95E2F78095822388BB089525B3F1
S1130A0081E090E002C0880F991F6A95E2F7809513
S1130A10822385BB089522B381E090E002C0880F51
S1130A20991F6A95E2F78095822382BB08958130ED
S1130A3079F028F08230A9F08330E1F024C089B342
S1130A4090E002C0959587956A95E2F781700895C4
S1130A5086B390E002C0959587956A95E2F7817018
S1130A60089583B390E002C0959587956A95E2F75F
S1130A708170089580B390E002C0959587956A953A
S1130A80E2F78170089580E008958130B1F028F094
S1130A90823019F1833089F108952AB381E090E01E
S1130AA002C0880F991F6A95E2F7982F90959223B8
S1130AB09ABB9BB3892B8BBB089527B381E090E04D
S1130AC002C0880F991F6A95E2F7982F9095922398
S1130AD097BB98B3892B88BB089524B381E090E039
S1130AE002C0880F991F6A95E2F7982F9095922378
S1130AF094BB95B3892B85BB089521B381E090E025
S1130B0002C0880F991F6A95E2F7982F9095922357
S1130B1091BB92B3892B82BB0895DC019C919C33D9
S1130B205CF4E1E0E90FEC93EE0FFF0BEA0FFB1F1F
S1130B307283618382E0089581E00895DC01EC9181
S1130B40EF3F71F0EE0FFF0BE80FF91F81819281E7
S1130B50FB01918380838C9181508C9382E0089572
S1130B6080E00895DC01EC91EF3F39F0EE0FFF0BCC
S1130B70E80FF91F81819281089580E090E0089543
S1130B8097FB072E16F4009407D077FD09D00E9436
S1130B90B70607FC05D03EF4909581959F4F0895C4
S1130BA0709561957F4F0895689401C0E894F92F7A
S1130BB0F12B12F00C940806A0E0B0E0E2EEF5E0B0
S1130BC00C947A06092E059422F40E9464061123DB
S1130BD092F4F0E80F26FFEFE094F094009510955E
S1130BE0B094C094D094A194BF0ACF0ADF0AEF0A4C
S1130BF0FF0A0F0B1F0B0E94130607FC0E946406DA
S1130C00CDB7DEB7ECE00C949606689401C0E89486
S1130C108F929F92CF93DF930E941306DF91CF911F
S1130C209F908F90089588249924F401E401B0E4FE
S1130C309F93AA279A158B049C04ED05FE05CF0506
S1130C40D007A10798F4AD2FDC2FCF2FFE2FE92D6D
S1130C50982C892E982F872F762F652F542F432F6A
S1130C60322F2227B85031F7BF9127C01B2EBF91D6
S1130C70BB27220F331F441F551F661F771F881F72
S1130C80991F881C991CEE1FFF1FCC1FDD1FAA1F74
S1130C90BB1F8A149B04EC05FD05CE05DF05A007E8
S1130CA0B10748F08A189B08EC09FD09CE09DF0951
S1130CB0A00BB10B21601A94E1F62EF49401AF015C
S1130CC0BE01CD01000C08956095709580959095B6
S1130CD030954095509521953F4F4F4F5F4F6F4F43
S1130CE07F4F8F4F9F4F08952F923F924F925F9265
S1130CF06F927F928F929F92AF92BF92CF92DF9228
S1130D00EF92FF920F931F93CF93DF93CDB7DEB78C
S1130D10CA1BDB0B0FB6F894DEBF0FBECDBF099420
S1130D202A88398848885F846E847D848C849B8477
S1130D30AA84B984C884DF80EE80FD800C811B8185
S1130D40AA81B981CE0FD11D0FB6F894DEBF0FBEB4
S1130D50CDBFED0108950024A7FD00942A173005A6
S1130D604005500560057005800590050895AA1B8F
S1130D70BB1B51E107C0AA1FBB1FA617B70710F082
S1130D80A61BB70B881F991F5A95A9F780959095B4
S10D0D90BC01CD010895F894FFCFD3
S1130D9AFF00000000000000000000000000000046
S1130DAA0000000000000000000000000000000035
S1130DBA0000000000000000000000000000000025
S1130DCA0000000000000000000000000000000015
S1130DDA0000000000000000000000000000000005
S1130DEA00000000000000000000000000000000F5
S1130DFA00000000000000000000000000000000E5
S1130E0A000000000000000000FF000000000000D5
S1130E1A00000000000000000000000000000000C4
S1130E2A00000000000000000000000000000000B4
S1130E3A00000000000000000000000000000000A4
S1130E4A0000000000000000000000000000000094
S1130E5A0000000000000000000000000000000084
S1130E6A0000000000000000000000000000000074
S1130E7A0000000000000000000000000000000064
S1130E8A000007060503050403023738392F3435F1
S1130E9A362A3132332D63303D2B3D3D3D3D3D3DB8
S1130EAA3D3D3D3D3D3D3D3D3D3D3D3D3D3D3D3D64
S1130EBA3D3D3D3D3D00202043414C43554C41546A
S1130ECA4F522041505020004D415448204552521F
S1070EDA4F5200006F
S9030000FC
