:100000000C942A000C9447000C9447000C94470071
:100010000C9447000C9447000C9447000C94470044
:100020000C9447000C9447000C9447000C94470034
:100030000C9447000C9447000C9447000C94470024
:100040000C9447000C9447000C9447000C94470014
:100050000C94470011241FBECFE5D8E0DEBFCDBF12
:1000600011E0A0E6B0E0EEECFEE002C005900D92DB
:10007000A83AB107D9F721E0A8EAB1E001C01D9282
:10008000AA3EB207E1F70E94D9040C9465070C94CC
:1000900000004B3281F050F44A32E1F4869F900127
:1000A000879F300D969F300D112419C04D3239F0C5
:1000B0004F3249F00FC09C01260F371F10C09C0122
:1000C000261B370B0CC06115710539F00E945A06CA
:1000D0009B0105C020E030E002C020E030E8C9010B
:1000E000089589ED90E00E9447068F3F31F16CEA58
:1000F00071E080E690E00E9433066EEA71E080E6EF
:1001000090E00E9433066AEA71E089ED90E00E9477
:1001100033066091AC017091AD014091AA018091CC
:10012000AE019091AF010E9449009093A901809384
:10013000A801811520E8920789F48091A801909187
:10014000A9018115904881F40E943B0465E082E09A
:100150000E94250482E591E00C941204BC0180E623
:1001600090E00E942306BDCF80E690E00E94470603
:10017000082E000C990B9093A9018093A80161E0CF
:1001800084E00E9425048DE591E00E9412043091E4
:10019000A9012091A801932F990F990B492F592F4D
:1001A000692F792F892F0C943E04CF93E091E901B8
:1001B000F0E0EF54FE4FC08189ED90E00E944706C9
:1001C000E82F880FFF0BEF54FE4F8081C81790F087
:1001D000E091E901F0E0EF54FE4FC08189ED90E03D
:1001E0000E944706E82F880FFF0BEF54FE4F8081D7
:1001F000C81328C06CEA71E080E690E00E943306E4
:100200006EEA71E080E690E00E9433066AEA71E0EF
:1002100089ED90E00E9433066091AC017091AD01D0
:100220004091AA018091AE019091AF010E944900D6
:100230009093A9018093A801BC0180E690E0CF9142
:100240000C942306CF91089580E090E020E04AE0EE
:10025000E22FF0E0EC51FE4F3081332361F0489FF4
:10026000B001499F700D1124832F90E0C097860F35
:10027000971F2F5FEDCF08950E94DA030E947D0241
:1002800061E081E00E94250482E691E00E94120470
:1002900061E082E00E9425048EE791E00E94120452
:1002A00061E083E00E94250482E691E00E9412044E
:1002B0002FEF88E09DE3215080409040E1F700C09F
:1002C00000000E943B0460E083E00E94DF0561E0E3
:1002D00083E00E94DF05E1EBF1E082E082A787A7DF
:1002E00081E083A785A708950E94B1028093E90168
:1002F00060E083E00E94C7058823A9F08091E901AE
:1003000090ED980F9A30D8F40E9410048091E30188
:10031000E82FF0E0EC51FE4F9091E90190838F5F60
:100320008093E301089588E28093E9010E9410041C
:1003300060E083E00E94C7058823D1F3DFCF982FC8
:100340009D7F9D3221F096ED980F923008F50E9426
:1003500010048091B001811112C0E091E301F0E03E
:10036000EC51FE4F10820E942401BC0180E690E017
:100370000E9423061092E3010E94D50002C0109251
:10038000B0016091E90170E089ED90E00C942306E2
:10039000883209F085C00E94B1028093E90190ED96
:1003A000980F9A3070F40E9410048091E301E82FB6
:1003B000F0E0EC51FE4F9091E90190838F5F8093C4
:1003C000E30161E083E00E94C705811143C089E237
:1003D0000E941004E091E301F0E0EC51FE4F108226
:1003E0000E9424011092E301BC0180E690E00E948B
:1003F00023066CEA71E080E690E00E9433066EEA24
:1004000071E080E690E00E9433066AEA71E089EDCF
:1004100090E00E9433066091AC017091AD01409173
:10042000AA018091AE019091AF010E944900909382
:10043000A9018093A801BC0180E690E00E942306F8
:1004400081E08093B00161E083E00E94C7058823CA
:10045000D1F308958091E901982F9D7F9D3229F075
:1004600096ED980F923008F096CF0E941004E0911C
:10047000E301F0E0EC51FE4F10820E942401BC0128
:1004800080E690E00E9423060E94D5006091E90179
:1004900070E089ED90E00E9423061092E3017BCF8B
:1004A0008D33C1F48091B001811110C0E091E3015E
:1004B000F0E0EC51FE4F10820E942401BC0180E666
:1004C00090E00E9423061092E30102C01092B00156
:1004D0000C947100833681F40E943B041092A901B0
:1004E0001092A8011092E30189ED90E00E9452065B
:1004F00080E690E00C9452060895CF93DF9343E09A
:1005000062E082E00E94DE0443E063E082E00E9459
:10051000DE0443E064E082E00E94DE0443E065E044
:1005200082E00E94DE0467E083E00E94DF0566E06F
:1005300083E00E94DF0565E083E00E94DF0563E061
:1005400083E00E94DF05C4E9D1E0699141E082E0E7
:100550000E94630581E0C839D807B9F7DF91CF91D0
:1005600008959F92AF92BF92CF92DF92EF92FF9247
:100570000F931F93CF93DF9394E9C92E91E0D92E67
:10058000C8E9D1E0F12CF601E1906F0140E06E2D59
:1005900082E00E94630580E9A82E81E0B82E00E089
:1005A00010E0F50191905F01692D83E00E94C7057D
:1005B00081110AC0FE01E00FF11FF080692D83E078
:1005C0000E94C7058823D1F30F5F1F4F0430110528
:1005D00041F741E06E2D82E00E9463052496F1E030
:1005E000C83ADF0781F68F2DDF91CF911F910F91D0
:1005F000FF90EF90DF90CF90BF90AF909F900895C5
:10060000CF93C82F40E063E080E00E9463054C2F49
:10061000441F4427441F64E081E00E946305C6FB39
:10062000442740F962E081E00E946305C5FB44274E
:1006300040F961E081E00E946305C4FB442740F972
:1006400060E081E00E94630541E062E080E00E949A
:1006500063058FE99FE00197F1F700C0000040E0DB
:1006600062E080E00E9463058FE99FE00197F1F767
:1006700000C00000C3FB442740F964E081E00E9411
:100680006305C2FB442740F962E081E00E946305F4
:10069000C1FB442740F961E081E00E9463054C2FD3
:1006A000417060E081E00E94630541E062E080E02B
:1006B0000E9463058FE99FE00197F1F700C00000F9
:1006C00040E062E080E00E9463058FE99FE00197CF
:1006D000F1F700C00000CF910895CF93C82F41E0FB
:1006E00063E080E00E9463054C2F441F4427441FB1
:1006F00064E081E00E946305C6FB442740F962E0A4
:1007000081E00E946305C5FB442740F961E081E078
:100710000E946305C4FB442740F960E081E00E9429
:10072000630541E062E080E00E9463058FE99FE09D
:100730000197F1F700C0000040E062E080E00E9415
:1007400063058FE99FE00197F1F700C00000C3FB4C
:10075000442740F964E081E00E946305C2FB44271E
:1007600040F962E081E00E946305C1FB442740F943
:1007700061E081E00E9463054C2F417060E081E000
:100780000E94630541E062E080E00E9463058FE91A
:100790009FE00197F1F700C0000040E062E080E0D8
:1007A0000E9463058FE99FE00197F1F700C0000008
:1007B000CF91089543E062E080E00E94DE0443E0D0
:1007C00063E080E00E94DE0443E060E081E00E949C
:1007D000DE0443E061E081E00E94DE0443E062E089
:1007E00081E00E94DE0443E064E081E00E94DE04D8
:1007F0002FEF86E791E0215080409040E1F700C064
:10080000000082E00E94000388E20E9400038CE066
:100810000E94000381E00E94000386E00C94000324
:100820000C946D030F931F93CF938C01C0E0F801DC
:10083000EC0FF11D8081882321F00E946D03CF5FB2
:10084000F6CFCF911F910F910895982F862F923058
:1008500059F018F4913031F00895933039F0943014
:1008600039F00895815805C0815403C08D5601C0E8
:100870008D520C94000381E00C9400032F923F9260
:100880004F925F926F927F928F929F92AF92BF92A0
:10089000CF92DF92EF92FF920F931F93CF93DF934C
:1008A000CDB7DEB72D970FB6F894DEBF0FBECDBF24
:1008B00029013A014B011C01CE0101969A878987D3
:1008C00088E0E985FA8511928A95E9F7C101A0E0EF
:1008D0000E94450729F480E30E946D031B8640C0F7
:1008E000C101A0E00E9445076CF48DE20E946D03F7
:1008F0009201A301B401C1010E94FE0629013A013F
:100900004B011C011B8681E090E08C0F9D1FEB8545
:100910008E0F911D9D878C878AE0A82EB12CC12C4B
:10092000D12CE12CF12C00E010E09201A301B401E4
:10093000C1010E946E06205DEC85FD852083920139
:10094000A301B401C1010E94700629013A014B01C3
:100950001C01FB85FF5FFB87A0E00E94450799F61D
:100960009B849A9497FC0CC0E1E0F0E0EC0FFD1F33
:10097000E90DF11D97FCFA9580810E946D03F1CF7E
:100980002D960FB6F894DEBF0FBECDBFDF91CF918D
:100990001F910F91FF90EF90DF90CF90BF90AF909D
:1009A0009F908F907F906F905F904F903F902F908F
:1009B00008950E943C010E947401FDCF4330E1F58F
:1009C000813099F028F08230E9F0833041F10895C8
:1009D0002AB381E090E001C0880F6A95EAF7922F70
:1009E000982B9ABB9BB380953EC027B381E090E0E3
:1009F00001C0880F6A95EAF7922F982B97BB98B39E
:100A0000809540C024B381E090E001C0880F6A95D2
:100A1000EAF7922F982B94BB95B3809542C021B3EF
:100A200081E090E001C0880F6A95EAF7922F982B39
:100A300091BB92B3809544C0423009F043C08130ED
:100A4000A9F028F0823009F1833071F108952AB3BA
:100A500081E090E001C0880F6A95EAF78095922FB7
:100A600098239ABB9BB389238BBB089527B381E05E
:100A700090E001C0880F6A95EAF78095922F98233D
:100A800097BB98B3892388BB089524B381E090E095
:100A900001C0880F6A95EAF78095922F982394BB3E
:100AA00095B3892385BB089521B381E090E001C00F
:100AB000880F6A95EAF78095922F982391BB92B39D
:100AC000892382BB0895413061F5813079F028F0A7
:100AD0008230A9F08330E1F008952BB381E090E0FB
:100AE00001C0880F6A95EAF7822B2EC028B381E0F7
:100AF00090E001C0880F6A95EAF7822B30C025B3D9
:100B000081E090E001C0880F6A95EAF7822B32C03D
:100B100022B381E090E001C0880F6A95EAF7822B4A
:100B200034C0411133C0813089F028F08230C9F0DF
:100B3000833011F108952BB381E090E001C0880F5C
:100B40006A95EAF7809582238BBB089528B381E0EC
:100B500090E001C0880F6A95EAF78095822388BBF0
:100B6000089525B381E090E001C0880F6A95EAF707
:100B70008095822385BB089522B381E090E001C077
:100B8000880F6A95EAF78095822382BB08958130A9
:100B900049F030F0823041F0833079F480B305C001
:100BA00089B303C086B301C083B390E002C09595BA
:100BB00087956A95E2F78170089580E00895813005
:100BC000A9F028F0823009F1833071F108952AB339
:100BD00081E090E001C0880F6A95EAF7982F909520
:100BE00092239ABB9BB3892B8BBB089527B381E0DB
:100BF00090E001C0880F6A95EAF7982F90959223AC
:100C000097BB98B3892B88BB089524B381E090E00B
:100C100001C0880F6A95EAF7982F9095922394BBAC
:100C200095B3892B85BB089521B381E090E001C085
:100C3000880F6A95EAF7982F9095922391BB92B30B
:100C4000892B82BB0895DC01EC91EC3354F4EF5F07
:100C5000EC93EE0FFF0BE80FF91F7283618382E0C4
:100C6000089581E00895DC01EC91EF3F71F0EE0F03
:100C7000FF0BE80FF91F81819281FB019183808333
:100C80008C9181508C9382E0089580E00895DC017E
:100C9000EC91EF3F29F0EE0FFF0BE80FF91FE18118
:100CA0008E2F0895FC0190819F3F19F09150908301
:100CB000FACF089597FB072E16F4009407D077FD1E
:100CC00009D00E94510707FC05D03EF4909581950C
:100CD0009F4F0895709561957F4F0895689401C066
:100CE000E894F92FF12B12F00C94A206A0E0B0E0EA
:100CF000ECE7F6E00C941407092E059422F40E9408
:100D0000FE06112392F4F0E80F26FFEFE094F09432
:100D100000951095B094C094D094A194BF0ACF0AC6
:100D2000DF0AEF0AFF0A0F0B1F0B0E94AD0607FC3C
:100D30000E94FE06CDB7DEB7ECE00C943007689455
:100D400001C0E8948F929F92CF93DF930E94AD06EB
:100D5000DF91CF919F908F90089588249924F4017A
:100D6000E401B0E49F93AA279A158B049C04ED0537
:100D7000FE05CF05D007A10798F4AD2FDC2FCF2FAC
:100D8000FE2FE92D982C892E982F872F762F652FEF
:100D9000542F432F322F2227B85031F7BF9127C04D
:100DA0001B2EBF91BB27220F331F441F551F661FE9
:100DB000771F881F991F881C991CEE1FFF1FCC1FCF
:100DC000DD1FAA1FBB1F8A149B04EC05FD05CE0581
:100DD000DF05A007B10748F08A189B08EC09FD0958
:100DE000CE09DF09A00BB10B21601A94E1F62EF4B5
:100DF0009401AF01BE01CD01000C0895609570957E
:100E00008095909530954095509521953F4F4F4F47
:100E10005F4F6F4F7F4F8F4F9F4F08952F923F929D
:100E20004F925F926F927F928F929F92AF92BF92FA
:100E3000CF92DF92EF92FF920F931F93CF93DF93A6
:100E4000CDB7DEB7CA1BDB0B0FB6F894DEBF0FBE03
:100E5000CDBF09942A88398848885F846E847D8450
:100E60008C849B84AA84B984C884DF80EE80FD8052
:100E70000C811B81AA81B981CE0FD11D0FB6F894C8
:100E8000DEBF0FBECDBFED0108950024A7FD009485
:100E90002A1730054005500560057005800590054E
:100EA0000895AA1BBB1B51E107C0AA1FBB1FA617B1
:100EB000B70710F0A61BB70B881F991F5A95A9F703
:0E0EC00080959095BC01CD010895F894FFCF68
:100ECE00FF00000000000000000000000000000015
:100EDE000000000000000000000000000000000004
:100EEE0000000000000000000000000000000000F4
:100EFE0000000000000000000000000000000000E4
:100F0E0000000000000000000000000000000000D3
:100F1E0000000000000000000000000000000000C3
:100F2E0000000000000000000000000000000000B3
:100F3E00000000000000000000FF000000000000A4
:100F4E000000000000000000000000000000000093
:100F5E000000000000000000000000000000000083
:100F6E000000000000000000000000000000000073
:100F7E000000000000000000000000000000000063
:100F8E000000000000000000000000000000000053
:100F9E000000000000000000000000000000000043
:100FAE000000000000000000000000000000000033
:100FBE0000004D415448204552524F5200414E536D
:100FCE003A003D3D3D3D3D3D3D3D3D3D3D3D3D3D83
:100FDE003D3D3D3D3D3D3D3D3D3D3D3D3D002020AA
:100FEE0043414C43554C41544F52204150502000E8
:100FFE0007060503050403023738392F3435362A20
:08100E003132332D63303D2B1C
:00000001FF
